:020000040000FA
:060000008A110A12052816
:1000080009003D2083160313850107148710071183
:100018008801831203138714071505148514A0306B
:10002800F2000F30F3002F200510851005108514FD
:1000380055308800D030F2000730F3002F20051427
:100048008510AA308800D030F2000730F3002F2046
:100058001A2863002D28F30A0430F100A530F000B7
:10006800F00B3428F10B3228F20B3028F30B302830
:10007800080000007030831603138F049F13831247
:1000880003131F10831603178801890183120317AE
:10009800881387138312031385018601870188015A
:0400A80089010800C2
:04400E00F42FFF3F4D
:00000001FF
