:020000040000FA
:060000008A110A12052816
:100008000900E221CD217921831603138501071008
:10001800871007118801831203137E200330BF0065
:10002800C530F2000130F3009130F7000330F800DA
:100038006E23C530BC000130BD006C22051485104C
:10004800F430F2000130F300942005108514F430E8
:10005800F2000130F3009420BF0B14287E207E208C
:10006800C530F2000130F3009330F7000330F80098
:100078006E23C530BC000130BD006C22AA30880058
:1000880044227E20C530F2000130F3009730F7009B
:100098000330F8006E23C530BC000130BD006C226F
:1000A800A530880044227E20C530F2000130F300DC
:1000B8009C30F7000330F8006E23C530BC000130D7
:1000C800BD006C225530880044227E20C530F200E5
:1000D8000130F300A130F7000330F8006E23C5307B
:1000E800BC000130BD006C225A30880044223328FD
:1000F80063007C2805110130A100FB210430F200C7
:10010800F30194208030A100FB210C30F5008C28ED
:100118000530F000F00B8E280000F50B8C28080045
:10012800F30A0430F100A530F000F00B9928F10B28
:100138009728F20B9528F30B95280800FF30AD009F
:10014800AE010130C500D030F5000730F600F701E8
:10015800F8012C08F900FA01FB01FC01C22275081C
:10016800A5007608A6007708A7007808A800260842
:10017800003C0318CB280430C5000310A80CA70CBA
:10018800A60CA50C0310A80CA70CA60CA50C2608F9
:10019800003C0318DB281030C5000310A80CA70C7E
:1001A800A60CA50C0310A80CA70CA60CA50C2608D9
:1001B800003C0318EB284030C5000310A80CA70C1E
:1001C800A60CA50C0310A80CA70CA60CA50C2508BA
:1001D8008316031392008312031312109210043033
:1001E80045020319121410304502031992144030C5
:1001F8004502031D0129121492142903031D3C29E9
:1002080002302507C10000300318013E2607C2004E
:1002180000300318013E2707C30000300318013ED1
:100228002807C4002A08F5002B08F600F701F80192
:100238004108F9004208FA004308FB004408FC00A2
:1002480028237008A5007108A6007208A700730883
:10025800A800260895002A08F5002B08F600F901E1
:10026800FA018B227018950197151715971017101A
:1002780002302902031D782902302507C100003009
:100288000318013E2607C20000300318013E270765
:10029800C30000300318013E2807C4002A08F500EF
:1002A8002B08F600F701F8014108F9004208FA00A6
:1002B8004308FB004408FC0028237008A5007108C7
:1002C800A6007208A7007308A80026089B002A0841
:1002D800F5002B08F600F901FA018B2270189B0132
:1002E8009D151D159D101D1008008316031305117B
:1002F80085110A30F200F3018312031394203C2283
:10030800A208031983290511831603130512851200
:10031800051385130F30F200F301831203139420A1
:10032800051685160513851399299A2985159C297B
:100338009D2985110530F200F30194200330C00097
:100348008515A629A72985118530F000F00BAA2963
:10035800C00BA4290530F200F3019420051285167C
:1003680005138513B729B8298515BA29BB2985111D
:100378002130F000F00BBE292830A100FB21063007
:10038800A100FB210C30A100FB217E200C30A30032
:100398000800A0017D308316031392008312031313
:1003A800121092103F3095002012A012A0122012B5
:1003B800A0152015A010201012150800000070309C
:1003C800831603138F049F13831203131F108316BE
:1003D800031788018901831203178813871383126F
:1003E80003138501860187018801890108008316A6
:1003F80003130512851205138513831203130512BF
:10040800851205138513A11B8517211B0517A11A32
:100418008516211A0516102A8515122A132A851100
:10042800152A162A0512851205138513A119851791
:1004380021190517A118851621180516232A8515CF
:10044800252A262A8511282A292A85130513851283
:1004580005123530F000F00B2F2A10302102031856
:100468003B2A2108073C03183B2A2108A30008005F
:100478000A30F200F3019420FF30A20008000800BF
:100488000130A9001030AC00C830AA00AB01A2208E
:100498000230A9001030AC00C830AA00AB01A2207D
:1004A800DC30F2000530F30094200130A900103050
:1004B800AC00AA01AB01A2200230A9001030AC00A8
:1004C800AA01AB01A220F430F2000130F300942815
:1004D8003C08840083133D1883170008A400A4086F
:1004E800031908000515BE0101302402031C8A2ADD
:1004F800BE0A3E083C07840083133D188317000892
:10050800A100FB2124083E02031C7C2A0800F001FC
:1005180075087902031D080076087A02031D080091
:10052800F0090800F00175087902031D0800760833
:100538007A02031D080077087B02031D080078086B
:100548007C02031D0800F0090800F00178087C020D
:10055800031C0800031DC02A77087B02031C08003F
:10056800031DC02A76087A02031C0800031DC02A4E
:100578007908750203180800F00908007508B0002A
:100588007608B1007708B2007808B3007908B4009B
:100598007A08B5007B08B6007C08B700B801B90135
:1005A800BA01BB013408F5003508F6003608F70033
:1005B8003708F800F901FA01FB01FC019622701CCA
:1005C800EA2AF501F601F701F80108002030F400E5
:1005D8000310B00DB10DB20DB30DB80DB90DBA0DB4
:1005E800BB0D3408B8023508031C013EB9023608B1
:1005F800031C013EBA023708031C013EBB0230143B
:100608000318152B30103408B80735080318013EB5
:10061800B90736080318013EBA0737080318013E20
:10062800BB07F40BEC2A3008F5003108F600320855
:10063800F7003308F8003808F0003908F1003A08E4
:10064800F2003B08F30008007508B0007608B10016
:100658007708B2007808B3007908B4007A08B500C2
:100668007B08B6007C08B700B801B901BA01BB0124
:10067800341C4C2B3008B80731080318013EB90761
:1006880032080318013EBA0733080318013EBB07B6
:100698000310B70CB60CB50CB40C0310B00DB10DAB
:1006A800B20DB30D3408F9003508FA003608FB001E
:1006B8003708FC00F501F601F701F801A9227018C6
:1006C8003C2B3808F0003908F1003A08F2003B08E2
:1006D800F3000800720884008313731883178A23B1
:1006E800F5008000F207812B7208840083137318C9
:1006F80083178A23F500F607F207F508031908009F
:100708008A23840A8000F50B842B080078088A0065
:100718007708F70A0319F80A820001342E340334E3
:1007280046347734643404344C3465346634743471
:1007380004344234613463346B34053452346934DC
:06074800673468347434CC
:04400E00F42FFF3F4D
:00000001FF
