:020000040000FA
:060000008A110A12052816
:10000800090058214321831603138501071487101B
:1000180007118801033083120313B70005148510F4
:10002800FA30F200F3015E2005108514FA30F20070
:10003800F3015E20B70B12280130A5001030A8008C
:10004800C830A600A7016C200230A5001030A80017
:10005800C830A600A7016C20553088000130A500E3
:100068001030A800C830A600A7016C200230A500F7
:100078001030A800C830A600A7016C20E830F200B4
:100088000330F3005E200130A5001030A800A6015F
:10009800A7016C200230A5001030A800A601A70116
:1000A8006C20D030F2000730F3005E208809322837
:1000B80063005C28F30A0430F100A530F000F00B6F
:1000C8006328F10B6128F20B5F28F30B5F28080007
:1000D800FF30A900AA010130BC00D030F50007307C
:1000E800F600F701F8012808F900FA01FB01FC0104
:1000F800A8217508A1007608A2007708A30078084F
:10010800A4002208003C031895280430BC00031002
:10011800A40CA30CA20CA10C0310A40CA30CA20CFD
:10012800A10C2208003C0318A5281030BC000310BD
:10013800A40CA30CA20CA10C0310A40CA30CA20CDD
:10014800A10C2208003C0318B5284030BC0003105D
:10015800A40CA30CA20CA10C0310A40CA30CA20CBD
:10016800A10C2108831603139200831203131210A3
:10017800921004303C020319121410303C02031987
:10018800921440303C02031DCB281214921425030C
:10019800031D062902302107B80000300318013E6C
:1001A8002207B90000300318013E2307BA000030C7
:1001B8000318013E2407BB002608F5002708F600AF
:1001C800F701F8013808F9003908FA003A08FB0085
:1001D8003B08FC000E227008A1007108A2007208FA
:1001E800A3007308A400220895002608F500270834
:1001F800F600F901FA017121701895019715171584
:100208009710171002302502031D422902302107DA
:10021800B80000300318013E2207B9000030031867
:10022800013E2307BA0000300318013E2407BB0033
:100238002608F5002708F600F701F8013808F90044
:100248003908FA003A08FB003B08FC000E22700847
:10025800A1007108A2007208A3007308A400220874
:100268009B002608F5002708F600F901FA0171211C
:1002780070189B019D151D159D101D100800A001EB
:100288007D30831603139200831203131210921009
:100298003F3095002012A012A0122012A0152015A0
:1002A800A0102010121508000000703083160313E8
:1002B8008F049F13831203131F10831603178801DB
:1002C8008901831203178813871383120313850187
:1002D80086018701880189010800F0017508790203
:1002E800031D080076087A02031D0800F0090800BB
:1002F800F00175087902031D080076087A02031DCB
:10030800080077087B02031D080078087C02031D9B
:100318000800F0090800F00178087C02031C0800B6
:10032800031DA62977087B02031C0800031DA629C4
:1003380076087A02031C0800031DA62979087502AD
:1003480003180800F00908007508AB007608AC002F
:100358007708AD007808AE007908AF007A08B000D9
:100368007B08B1007C08B200B301B401B501B60145
:100378002F08F5003008F6003108F7003208F800B9
:10038800F901FA01FB01FC017C21701CD029F5015F
:10039800F601F701F80108002030F4000310AB0D56
:1003A800AC0DAD0DAE0DB30DB40DB50DB60D2F08DA
:1003B800B3023008031C013EB4023108031C013E9D
:1003C800B5023208031C013EB6022B140318FB29A0
:1003D8002B102F08B30730080318013EB407310863
:1003E8000318013EB50732080318013EB607F40B9F
:1003F800D2292B08F5002C08F6002D08F7002E0846
:10040800F8003308F0003408F1003508F200360827
:10041800F30008007508AB007608AC007708AD005B
:100428007808AE007908AF007A08B0007B08B10000
:100438007C08B200B301B401B501B6012F1C322A01
:100448002B08B3072C080318013EB4072D0803181E
:10045800013EB5072E080318013EB6070310B20C7B
:10046800B10CB00CAF0C0310AB0DAC0DAD0DAE0D57
:100478002F08F9003008FA003108FB003208FC00A8
:10048800F501F601F701F8018F217018222A3308C7
:10049800F0003408F1003508F2003608F3000800CF
:04400E00F42FFF3F4D
:00000001FF
