:020000040000FA
:060000008A110A12052816
:100008000900332083160313850183120313051493
:100018008514D030F2000730F30025200510851034
:1000280005108514F430F2000130F3002520051482
:100038008510F430F2000130F30025201428630005
:100048002328F30A0430F100A530F000F00B2A2829
:10005800F10B2828F20B2628F30B262808000000AD
:100068007030831603138F049F13831203131F101A
:1000780083160317880189018312031788138713CE
:10008800831203138501860187018801890108000D
:04400E00F42FFF3F4D
:00000001FF
