:020000040000FA
:060000008A110A12052816
:1000080009006721522183160313850107148710FD
:1000180007118801033083120313B70005148510F4
:10002800FA30F200F3016D2005108514FA30F20061
:10003800F3016D20B70B1228553088000130A50058
:100048001030A800A601A7017B200230A5001030BF
:10005800A800FF30A600A7017B20E830F20003309B
:10006800F3006D20FF30BD00BD0A0130A50010303F
:10007800A8003D08A600A7017B202608BD00023085
:10008800A5001030A8003D08FF3CA600A701031CEE
:10009800A7037B203230F200F3016D20FF303D02D0
:1000A800031C38280130A5001030A800FF30A60036
:1000B800A7017B200230A5001030A800A601A701E7
:1000C8007B20E830F2000330F3006D202228630023
:1000D8006B28F30A0430F100A530F000F00B722809
:1000E800F10B7028F20B6E28F30B6E280800FF3016
:1000F800A900AA010130BC00D030F5000730F60095
:10010800F701F8012808F900FA01FB01FC01B72101
:100118007508A1007608A2007708A3007808A40053
:100128002208003C0318A4280430BC000310A40CC7
:10013800A30CA20CA10C0310A40CA30CA20CA10CE0
:100148002208003C0318B4281030BC000310A40C8B
:10015800A30CA20CA10C0310A40CA30CA20CA10CC0
:100168002208003C0318C4284030BC000310A40C2B
:10017800A30CA20CA10C0310A40CA30CA20CA10CA0
:10018800210883160313920083120313121092108E
:1001980004303C020319121410303C020319921463
:1001A80040303C02031DDA28121492142503031D63
:1001B800152902302107B80000300318013E220734
:1001C800B90000300318013E2307BA0000300318B5
:1001D800013E2407BB002608F5002708F600F701B2
:1001E800F8013808F9003908FA003A08FB003B081A
:1001F800FC001D227008A1007108A2007208A3006B
:100208007308A400220895002608F5002708F600C0
:10021800F901FA01802170189501971517159710A3
:10022800171002302502031D512902302107B8009A
:1002380000300318013E2207B90000300318013EC0
:100248002307BA0000300318013E2407BB00260824
:10025800F5002708F600F701F8013808F900390811
:10026800FA003A08FB003B08FC001D227008A100B8
:100278007108A2007208A3007308A40022089B005A
:100288002608F5002708F600F901FA018021701800
:100298009B019D151D159D101D100800A0017D30A6
:1002A80083160313920083120313121092103F3027
:1002B80095002012A012A0122012A0152015A0103F
:1002C80020101215080000007030831603138F04E5
:1002D8009F13831203131F108316031788018901C4
:1002E800831203178813871383120313850186016A
:1002F8008701880189010800F00175087902031D4A
:10030800080076087A02031D0800F0090800F001C9
:1003180075087902031D080076087A02031D080093
:1003280077087B02031D080078087C02031D08007B
:10033800F0090800F00178087C02031C0800031D7E
:10034800B52977087B02031C0800031DB529760828
:100358007A02031C0800031DB529790875020318E1
:100368000800F00908007508AB007608AC007708AB
:10037800AD007808AE007908AF007A08B0007B08B5
:10038800B1007C08B200B301B401B501B6012F0871
:10039800F5003008F6003108F7003208F800F901D6
:1003A800FA01FB01FC018B21701CDF29F501F60124
:1003B800F701F80108002030F4000310AB0DAC0D74
:1003C800AD0DAE0DB30DB40DB50DB60D2F08B302BE
:1003D8003008031C013EB4023108031C013EB5027B
:1003E8003208031C013EB6022B1403180A2A2B10EC
:1003F8002F08B30730080318013EB4073108031863
:10040800013EB50732080318013EB607F40BE1298F
:100418002B08F5002C08F6002D08F7002E08F80028
:100428003308F0003408F1003508F2003608F3000C
:1004380008007508AB007608AC007708AD007808AE
:10044800AE007908AF007A08B0007B08B1007C08DC
:10045800B200B301B401B501B6012F1C412A2B0823
:10046800B3072C080318013EB4072D080318013EF2
:10047800B5072E080318013EB6070310B20CB10CDD
:10048800B00CAF0C0310AB0DAC0DAD0DAE0D2F08BD
:10049800F9003008FA003108FB003208FC00F501C9
:1004A800F601F701F8019E217018312A3308F0008F
:0E04B8003408F1003508F2003608F3000800A1
:04400E00F42FFF3F4D
:00000001FF
