:020000040000FA
:060000008A110A12052816
:100008000900DE21C9217521831603138501071410
:10001800871007118801831203137A200330BF0069
:10002800C530F2000130F3008830F7000330F800E3
:100038006523C530BC000130BD006322051485105E
:10004800F430F2000130F300902005108514F430EC
:10005800F2000130F3009020BF0B14287A20C5303D
:10006800F2000130F3008A30F7000330F80065230E
:10007800C530BC000130BD00632202308800402238
:10008800C530F2000130F3008C30F7000330F8007F
:100098006523C530BC000130BD00632208308800EC
:1000A8004022C530F2000130F3008E30F7000330F3
:1000B800F8006523C530BC000130BD006322203044
:1000C80088004022C530F2000130F3009030F7007C
:1000D8000330F8006523C530BC000130BD00632241
:1000E80080308800402233286300782805110130C9
:1000F800A100F7210430F200F30190208030A10024
:10010800F7210C30F50088280530F000F00B8A281C
:100118000000F50B88280800F30A0430F100A53028
:10012800F000F00B9528F10B9328F20B9128F30BB4
:1001380091280800FF30AD00AE010130C500D03075
:10014800F5000730F600F701F8012C08F900FA016C
:10015800FB01FC01B9227508A5007608A6007708FE
:10016800A7007808A8002608003C0318C728043010
:10017800C5000310A80CA70CA60CA50C0310A80C0E
:10018800A70CA60CA50C2608003C0318D72810308D
:10019800C5000310A80CA70CA60CA50C0310A80CEE
:1001A800A70CA60CA50C2608003C0318E72840302D
:1001B800C5000310A80CA70CA60CA50C0310A80CCE
:1001C800A70CA60CA50C250883160313920083120E
:1001D8000313121092100430450203191214103040
:1001E80045020319921440304502031DFD281214DC
:1001F80092142903031D382902302507C100003055
:100208000318013E2607C20000300318013E2707E5
:10021800C30000300318013E2807C4002A08F5006F
:100228002B08F600F701F8014108F9004208FA0026
:100238004308FB004408FC001F237008A500710850
:10024800A6007208A7007308A800260895002A08C7
:10025800F5002B08F600F901FA01822270189501C1
:10026800971517159710171002302902031D7429C6
:1002780002302507C10000300318013E2607C200DE
:1002880000300318013E2707C30000300318013E61
:100298002807C4002A08F5002B08F600F701F80122
:1002A8004108F9004208FA004308FB004408FC0032
:1002B8001F237008A5007108A6007208A70073081C
:1002C800A80026089B002A08F5002B08F600F9016B
:1002D800FA01822270189B019D151D159D101D1095
:1002E800080083160313051185110A30F200F30183
:1002F8008312031390203822A20803197F290511BD
:100308008316031305128512051385130F30F200A7
:10031800F301831203139020051685160513851320
:100328009529962985159829992985110530F2006E
:10033800F30190200330C0008515A229A329851157
:100348008530F000F00BA629C00BA0290530F2007B
:10035800F30190200512851605138513B329B429D6
:100368008515B629B72985112130F000F00BBA2977
:100378002830A100F7210630A100F7210C30A10098
:10038800F7217A200C30A3000800A0017D308316E5
:100398000313920083120313121092103F3095003A
:1003A8002012A012A0122012A0152015A0102010B3
:1003B8001215080000007030831603138F049F1372
:1003C800831203131F1083160317880189018312F0
:1003D8000317881387138312031385018601870186
:1003E8008801890108008316031305128512051375
:1003F8008513831203130512851205138513A11B98
:100408008517211B0517A11A8516211A05160C2A0E
:1004180085150E2A0F2A8511112A122A051285120E
:1004280005138513A119851721190517A118851614
:10043800211805161F2A8515212A222A8511242A02
:10044800252A85130513851205123530F000F00BA7
:100458002B2A103021020318372A2108073C0318D9
:10046800372A2108A30008000A30F200F30190207F
:10047800FF30A200080008000130A9001030AC00CD
:10048800C830AA00AB019E200230A9001030AC0091
:10049800C830AA00AB019E20E830F2000330F30018
:1004A80090200130A9001030AC00AA01AB019E20B9
:1004B8000230A9001030AC00AA01AB019E283C080C
:1004C800840083133D1883170008A400A4080319A7
:1004D80008000515BE0101302402031C812ABE0A4A
:1004E8003E083C07840083133D1883170008A100C9
:1004F800F72124083E02031C732A0800F00175083E
:100508007902031D080076087A02031D0800F00925
:100518000800F00175087902031D080076087A02C0
:10052800031D080077087B02031D080078087C0279
:10053800031D0800F0090800F00178087C02031C7C
:100548000800031DB72A77087B02031C0800031D57
:10055800B72A76087A02031C0800031DB72A79080F
:10056800750203180800F00908007508B00076083D
:10057800B1007708B2007808B3007908B4007A08A7
:10058800B5007B08B6007C08B700B801B901BA010C
:10059800BB013408F5003508F6003608F7003708BF
:1005A800F800F901FA01FB01FC018D22701CE12A17
:1005B800F501F601F701F80108002030F4000310F6
:1005C800B00DB10DB20DB30DB80DB90DBA0DBB0D0F
:1005D8003408B8023508031C013EB9023608031C6A
:1005E800013EBA023708031C013EBB02301403184F
:1005F8000C2B30103408B80735080318013EB9072A
:1006080036080318013EBA0737080318013EBB072E
:10061800F40BE32A3008F5003108F6003208F70039
:100628003308F8003808F0003908F1003A08F200F9
:100638003B08F30008007508B0007608B100770899
:10064800B2007808B3007908B4007A08B5007B08CE
:10065800B6007C08B700B801B901BA01BB01341C67
:10066800432B3008B80731080318013EB907320890
:100678000318013EBA0733080318013EBB070310ED
:10068800B70CB60CB50CB40C0310B00DB10DB20D0F
:10069800B30D3408F9003508FA003608FB003708AE
:1006A800FC00F501F601F701F801A0227018332BC0
:1006B8003808F0003908F1003A08F2003B08F30066
:1006C8000800720884008313731883178123F500C8
:1006D8008000F207782B720884008313731883173D
:1006E8008123F500F607F207F508031908008123AE
:1006F800840A8000F50B7B2B080078088A007708AD
:10070800F70A0319F80A820001342E34013431340F
:0C07180001343234013433340134343401
:04400E00F42FFF3F4D
:00000001FF
